:100000000C9447070C946F070C946F070C946F07C0
:100010000C946F070C946F070C946F070C946F0788
:100020000C946F070C946F070C946F070C946F0778
:100030000C946F070C946F070C946F070C946F0768
:100040000C94781E0C946F070C94461E0C94201E82
:100050000C946F070C946F070C946F070C946F0748
:100060000C94C21E0C946F0700000000003E5B4F12
:100070005B3E3E6B4F6B3E1C3E7C3E1C183C7E3C08
:10008000181C577D571C1C5E7F5E1C00183C180016
:10009000FFE7C3E7FF0018241800FFE7DBE7FF30A6
:1000A000483A060E2629792926407F050507407F14
:1000B00005253F5A3CE73C5A7F3E1C1C08081C1C87
:1000C0003E7F14227F22145F5F005F5F06097F017D
:1000D0007F006689956A606060606094A2FFA29468
:1000E00008047E040810207E201008082A1C080836
:1000F0001C2A08081E101010100C1E0C1E0C303884
:100100003E3830060E3E0E06000000000000005F84
:1001100000000007000700147F147F14242A7F2AA0
:100120001223130864623649562050000807030062
:10013000001C2241000041221C002A1C7F1C2A08AE
:10014000083E080800807030000808080808000011
:1001500060600020100804023E5149453E00427F85
:10016000400072494949462141494D331814127FD4
:100170001027454545393C4A494931412111090774
:100180003649494936464949291E000014000000F5
:1001900040340000000814224114141414140041C7
:1001A00022140802015909063E415D594E7C121184
:1001B000127C7F494949363E414141227F414141BC
:1001C0003E7F494949417F090909013E4141517337
:1001D0007F0808087F00417F41002040413F017FA8
:1001E000081422417F404040407F021C027F7F0470
:1001F00008107F3E4141413E7F090909063E4151B9
:10020000215E7F09192946264949493203017F01A8
:10021000033F4040403F1F2040201F3F4038403FA9
:10022000631408146303047804036159494D4300BF
:100230007F4141410204081020004141417F0402F6
:10024000010204404040404000030708002054548D
:1002500078407F284444383844444428384444286B
:100260007F385454541800087E090218A4A49C78BE
:100270007F0804047800447D40002040403D007F1A
:100280001028440000417F40007C047804787C08FA
:100290000404783844444438FC18242418182424CE
:1002A00018FC7C08040408485454542404043F44B3
:1002B000243C4040207C1C2040201C3C4030403CE2
:1002C00044281028444C9090907C4464544C440042
:1002D00008364100000077000000413608000201A6
:1002E0000204023C2623263C1EA1A161123A404092
:1002F000207A38545455592155557941225454780F
:1003000042215554784020545579400C1E527212A7
:100310003955555559395454545939555454580030
:1003200000457C410002457D420001457C407D1234
:1003300011127DF0282528F07C5455450020545496
:100340007C547C0A097F4932494949323A44444441
:100350003A324A4848303A4141217A3A424020787C
:10036000009DA0A07D3D4242423D3D4040403D3C7D
:1003700024FF2424487E4943662B2FFC2F2BFF09A2
:1003800029F620C0887E0903205454794100004496
:100390007D413048484A32384040227A007A0A0A81
:1003A000727D0D19317D2629292F282629292926F4
:1003B00030484D4020380808080808080808382F39
:1003C00010C8ACBA2F102834FA00007B00000814C3
:1003D0002A142222142A14085500550055AA55AA99
:1003E00055AAFF55FF55FF000000FF00101010FF39
:1003F00000141414FF001010FF00FF1010F010F094
:10040000141414FC001414F700FF0000FF00FF1484
:1004100014F404FC141417101F10101F101F1414D0
:10042000141F00101010F0000000001F101010101A
:100430001F10101010F010000000FF10101010100E
:1004400010101010FF10000000FF140000FF00FF4C
:1004500000001F10170000FC04F4141417101714E8
:1004600014F404F40000FF00F7141414141414140A
:10047000F700F7141414171410101F101F1414147D
:10048000F4141010F010F000001F101F0000001FE7
:1004900014000000FC140000F010F01010FF10FF1A
:1004A000141414FF141010101F00000000F010FFAF
:1004B000FFFFFFFFF0F0F0F0F0FFFFFF0000000093
:1004C00000FFFF0F0F0F0F0F3844443844FC4A4A17
:1004D0004A347E02020606027E027E0263554941CC
:1004E000633844443C04407E201E2006027E020203
:1004F00099A5E7A5991C2A492A1C4C7201724C3017
:100500004A4D4D303048784830BC625A463D3E49ED
:100510004949007E0101017E2A2A2A2A2A44445F91
:10052000444440514A444040444A51400000FF0185
:1005300003E080FF000008086B6B08361236243693
:10054000060F090F060000181800000010100030F8
:1005500040FF0101001F01011E00191D1712003C80
:100560003C3C3C0000000000000103070F1F3F7FE0
:100570000080C0E0F0F8FCFE000000002300260030
:100580002900000000080002010000030407000029
:1005900000000000000000000000240027002A00E6
:1005A000DB40A4A62EAF2000A1C8D300408DAED55D
:1005B00080A80102040810204080010204081020D5
:1005C00001020408102000000000250028002B0074
:1005D00004040404040404040202020202020303E9
:1005E000030303030000600000000000000000009F
:1005F0000000000000E0000000000000000000001B
:1006000000000001E0000000000000000000000009
:10061000000001F0000000000000000000000000E9
:100620000003F000000000000000000000000000D7
:1006300007F00000000000000000000000000007BC
:10064000F8000000000000000000000000000FF8AB
:1006500000000003C0007E000001E0007F0FF800F2
:10066000000003C000FE000001E000FFEFF8000002
:100670000003C000FE000001E000FFFFF8000000E2
:1006800003C000F00000000F007FFE7FC0000003E9
:10069000C000F00000000F003FFE7FF83FF1FBCFED
:1006A000FCFEF3BC3DEFE01FFE7FFF7FFBFFDFFEA4
:1006B000FEFFBC3DEFE01FC6FFFF7FFBFFDFFEFE3E
:1006C000FFBC3DEFE00FE3C7FE787BC3DE1EF0FF0B
:1006D000BC3DEF0007FF87FC787BC3DE1EF0F83CD3
:1006E0003DEF0001FFFFF0007BC3C01EF0F03C3D7A
:1006F000EF0001F37FE03FFBC3CFFEF0F03C3DEFA6
:100700000003E33F807FFBC3DFFEF0F03C3DEF00E2
:1007100007E73C00787BC3DE1EF0F03C3DEF0007AE
:10072000FFBE00787BC3DE1EF0F03C3DEF0007FF0C
:10073000FE00787BC3DE1EF0F03C3DEF000FFFFEB5
:10074000007FFBFFDFFEF0F03FFDEFE00FFFFF005B
:100750007FFBFFDFFEF0F03FFDEFE00FF9FF003E13
:1007600079F9CF9EF0F01F3DE7E01FF1FF00000098
:100770000000000000000000001F80FF007FFFFF5E
:10078000FFFFFFFFFFFFFFE01C007F007FFFFFFF79
:10079000FEB46D888D18E000001F007FFFFFFFFE94
:1007A00095AD7DB577E000000F007FFFFFFFFEA550
:1007B000AD9D8D19E0000006007FFFFFFFFEB5AD87
:1007C000EDB57EE0000000000001800000000000A8
:1007D000000000000380000000000000000000078F
:1007E000C000000000000000000007C00000000082
:1007F00000000000000FC00000000000000000002A
:100800001FE00000000000000000001FE0000000EA
:100810000000000000003FE00000000000000000B9
:10082000003FF00000000000000000007FF000002A
:1008300000000000001FF87FF00000000000000032
:100840003FFE7FF0000000000000003FFF7FF0004F
:100850000000000000001FFFFBE00000000000009F
:10086000000FFFF9FFC00000000000000FFFF9FFBC
:10087000F800000000000007FFF1FFFF000000008B
:10088000000003FC73FFFF80000000000001FE3F3A
:10089000FFFF80000000000000FF1E0FFF000000AF
:1008A000000000007FFE1FFC000000000000003F71
:1008B000FFFFF8000000000000000FDFFFE0000075
:1008C00000000000001F19FFC00000000000000031
:1008D0003F3CFF00000000000000007E7CF80000AC
:1008E0000000000000007FFE7C000000000000000F
:1008F00000FFFFFC0000000000000000FFFFFE0002
:1009000000000000000000FFFFFE000000000000EB
:100910000001FFEFFE0000000000000001FFCFFE1D
:100920000000000000000003FF07FE0000000000C0
:10093000000003FC07FE0000000000000003F003BD
:10094000FE00000000000000018000FE000000002A
:100950000000000000007E00000000000000000019
:10096000003E000000000000000000000C0000003D
:10097000000000078000FC000003C00000000780AA
:1009800001FC000003C0000000078001FC00000320
:10099000C0000000078001E00000001E000000070A
:1009A0008001E00000001E007FE3F79FF9FDE7787B
:1009B0007BDFC0FFF7FFBFFDFDFF787BDFC0FFF7E8
:1009C000FFBFFDFDFF787BDFC0F0F787BC3DE1FF97
:1009D000787BDE00F0F787BC3DE1F0787BDE00003D
:1009E000F787803DE1E0787BDE007FF7879FFDE1C0
:1009F000E0787BDE00FFF787BFFDE1E0787BDE007B
:100A0000F0F787BC3DE1E0787BDE00F0F787BC3D86
:100A1000E1E0787BDE00F0F787BC3DE1E0787BDE4B
:100A200000FFF7FFBFFDE1E07FFBDFC0FFF7FFBF87
:100A3000FDE1E07FFBDFC07CF3F39F3DE1E03E7B27
:100A4000CFC00000000000000000000000FFFFFF1A
:100A5000FFFFFFFFFFFFFFC0FFFFFFFFFD68DB1190
:100A60001A31C0FFFFFFFFFD2B5AFB6AEFC0FFFFEB
:100A7000FFFFFD4B5B3B1A33C0FFFFFFFFFD6B5BCE
:100A8000DB6AFDC000000000000000000000000064
:100A90000000000000000000000000000000000056
:100AA0000000000000000000000000000000000046
:100AB0000000000000000000000000000000000036
:100AC0000000000000000000000000000000000026
:100AD0000000000000000000000000000000000016
:100AE0000000000000000000000000000000000006
:100AF00000000000000000000000000000000000F6
:100B000000000000000000000000000000000000E5
:100B100000000000000000000000000000000000D5
:100B200000000000000000000000000000000000C5
:100B300000000000000000000000000000000000B5
:100B400000000000000000000000000000000000A5
:100B50000000000000000000000000000000000095
:100B60000000000000000000000000000000000085
:100B70000000000000000000000000000000000075
:100B80000000000000000000000000000000000065
:100B90000000000000000000000000000000000055
:100BA0000000000000000000000000000000000045
:100BB0000000000000000000000000000000000035
:100BC0000000000000000000000000000000000025
:100BD0000000000000000000000000000000000015
:100BE0000000000000000000000000000000000005
:100BF0000000000000000F063000000001FE600051
:100C00000000000000003F062000000003FC600020
:100C1000000000000000760C600000000060C000D2
:100C2000000000000000E60C600000C00060C00092
:100C3000000000000000CE0CC001018000C1800057
:100C400000000300001FFF18F0E3F3C01CC1F070A8
:100C5000BB87430000FFFF18F9F3F7C07EC1F1F92D
:100C6000FF8FC70001C3183199F2C300F183319996
:100C7000998CC780038718319BF38301C183331993
:100C800019988580070638231B0186018306231BDC
:100C900033198180060E3E7BF3F9F78383067BF3DD
:100CA00033DFEF80060C1E7BE1F0F783030479E26B
:100CB00023CEEF00061C00000000000386000000A9
:100CC0000000000007380000000000018E00000056
:100CD0000000000003F0000000000001FC00000024
:100CE0000000000001E000000000000070000000B3
:100CF00000000000000000000000000000000000F4
:100D000000000000000000000000000000000000E3
:100D100000000000000000000000000000000000D3
:100D200000000000000000000000000000000000C3
:100D300000000000000000000000000000000000B3
:100D400000000000000000000000000000000000A3
:100D50000000000000000000000000000000000093
:100D60000000000000000000000000000000000083
:100D70000000000000000000000000000000000073
:100D80000000000000000000000000000000000063
:100D90000000000000000000000000000000000053
:100DA0000000000000000000000000000000000043
:100DB0000000000000000000000000000000000033
:100DC0000000000000000000000000000000000023
:100DD0000000000000000000000000000000000013
:100DE0000000000000000000000000000000000003
:100DF00000000000000000000000000000000000F3
:100E000000000000000000000000000000000000E2
:100E100000000000000000000000000000000000D2
:100E200000000000000000000000000000000000C2
:100E300000000000000000000000000000000000B2
:100E400000000000000000000000000000000000A2
:100E50000000000000000000000000000000000092
:100E60000000000000000000000000000000000082
:100E70000000000000000000000000000000000072
:100E8000000000002200FF210000E11F882411243F
:100E90001FBECFEFD8E0DEBFCDBF24E0ACE3B2E0B1
:100EA00001C01D92AD30B207E1F712E0A0E0B1E061
:100EB000E6E4FEE402C005900D92AC33B107D9F729
:100EC00017E0C6E4D7E004C02197FE010E94122576
:100ED000C534D107C9F70E9479200C9416270C94C9
:100EE0000000089508950895AF92BF92CF92DF92C7
:100EF000EF92FF920F931F93CF93DF936C017B01CF
:100F00008B01040F151FEB015E01AE18BF08C0175F
:100F1000D10759F06991D601ED91FC910190F081D2
:100F2000E02DC6010995892B79F7C501DF91CF9195
:100F30001F910F91FF90EF90DF90CF90BF90AF90F7
:100F40000895FC01538D448D252F30E0842F90E0CF
:100F5000821B930B541710F0CF96089501970895B4
:100F6000FC01918D828D981761F0A28DAE0FBF2F7D
:100F7000B11D5D968C91928D9F5F9F73928F90E0D3
:100F800008958FEF9FEF0895FC01918D828D981742
:100F900031F0828DE80FF11D858D90E008958FEF7F
:100FA0009FEF0895FC01918D228D892F90E0805C48
:100FB0009F4F821B91098F73992708958DE093E0CD
:100FC0000E94D20721E0892B09F420E0822F0895A6
:100FD00080E090E0892B29F00E94DE0781110C94BB
:100FE00000000895FC01A48DA80FB92FB11DA35ACC
:100FF000BF4F2C91848D90E001968F739927848F39
:10100000A689B7892C93A089B1898C91837080645B
:101010008C93938D848D981306C00288F389E02DFC
:1010200080818F7D80830895EF92FF920F931F93AD
:10103000CF93DF93EC0181E0888F9B8D8C8D98138B
:101040001AC0E889F989808185FF15C09FB7F89497
:10105000EE89FF896083E889F989808183708064E3
:1010600080839FBF81E090E0DF91CF911F910F912E
:10107000FF90EF900895F62E0B8D10E00F5F1F4F3D
:101080000F731127E02E8C8D8E110CC00FB607FC4C
:10109000FACFE889F989808185FFF5CFCE010E94DA
:1010A000F207F1CFEB8DEC0FFD2FF11DE35AFF4F4F
:1010B000F0829FB7F8940B8FEA89FB898081806268
:1010C000CFCFCF93DF93EC01888D8823B9F0AA8925
:1010D000BB89E889F9898C9185FD03C0808186FDF3
:1010E0000DC00FB607FCF7CF8C9185FFF2CF808142
:1010F00085FFEDCFCE010E94F207E9CFDF91CF91BE
:101100000895833081F028F4813099F08230A9F07D
:1011100008958730A9F08830C9F08430B1F4809107
:1011200080008F7D03C0809180008F778093800046
:10113000089584B58F7784BD089584B58F7DFBCFE6
:101140008091B0008F778093B00008958091B000B7
:101150008F7DF9CFCF93DF93282F30E0F901EE5741
:10116000FA4F8491F901EE54FA4FD491F901E0530A
:10117000FA4FC491CC23A1F081110E948108EC2F79
:10118000F0E0EE0FFF1FE858FA4FA591B491EC91F3
:10119000ED2381E090E009F480E0DF91CF910895A4
:1011A00080E090E0FACF1F93CF93DF93282F30E0B9
:1011B000F901EE57FA4F8491F901EE54FA4FD491A8
:1011C000F901E053FA4FC491CC23A9F0162F8111F5
:1011D0000E948108EC2FF0E0EE0FFF1FEA53FA4F58
:1011E000A591B4918FB7F894EC91111108C0D095E6
:1011F000DE23DC938FBFDF91CF911F910895DE2B0B
:10120000F8CFCF93DF9390E0FC01EE54FA4F249196
:1012100080539A4FFC0184918823D1F090E0880F8D
:10122000991FFC01EA56FA4FA591B491FC01EA53CB
:10123000FA4FC591D491623071F49FB7F8943C9104
:10124000822F809583238C93E8812E2B28839FBF48
:10125000DF91CF9108958FB7F894EC912E2B2C93BA
:101260008FBFF6CF3FB7F8948091FA029091FB02BE
:10127000A091FC02B091FD0226B5A89B05C02F3FAE
:1012800019F00196A11DB11D3FBFBA2FA92F982FAC
:101290008827BC01CD01620F711D811D911D42E0A7
:1012A000660F771F881F991F4A95D1F708958F926F
:1012B0009F92AF92BF92CF92DF92EF92FF924B013B
:1012C0005C010E9432096B017C010E9432096C1999
:1012D0007D098E099F09683E734081059105A8F339
:1012E00021E0821A9108A108B10888EEC80E83E0B7
:1012F000D81EE11CF11C81149104A104B10429F74A
:10130000FF90EF90DF90CF90BF90AF909F908F9025
:101310000895EF92FF920F931F93CF93DF93EC0109
:10132000EC80FD806E157F050CF070C057FF04C087
:10133000240F351F50E040E08E819F81FA01E20FBB
:10134000F31F8E179F071CF49C01241B350B1216EC
:1013500013060CF05BC0922F842F86958695869598
:101360008E9DD0018F9DB00D11246A0F7B1FAF8D14
:10137000B8A1A60FB71F477049F188E0841B482F1A
:10138000682F70E0FB01E059FA4FE491281708F04C
:1013900063C0621B71092FEF30E002C035952795BD
:1013A0006A95E2F7E2230130110539F0B0F102301D
:1013B000110561F58C91E82702C08C91E82BEC9324
:1013C000941720F12C813D81A20FB31FE92FE41B5C
:1013D000E83078F00230110521F58E2F9C91909520
:1013E0009C932C813D81A20FB31F88508830B0F7A9
:1013F000E770EE2359F0F0E0E859FA4FE49101303C
:101400001105F9F010F10230110519F1DF91CF91BA
:101410001F910F91FF90EF900895E0958C91E82334
:10142000CECF81E00115110509F480E081959E2F52
:101430008C932C813D81A20FB31F98509830C0F738
:10144000D7CF8C91E82BEC93E1CFE0958C91E823FA
:10145000FACF8C91E827F7CF0130110509F4ADCF11
:10146000E0F20230110509F4A5CFAE0DBF1DAECFDD
:101470000F931F93CF93DF9377FF04C0260F371F7F
:1014800070E060E0DC011496CD91DC91FB01E20F8D
:10149000F31FCE17DF071CF49E01261B370B121615
:1014A00013064CF5FA0157FD3796A3E0F595E7953D
:1014B000AA95E1F7EC9FD001ED9FB00DFC9FB00D18
:1014C00011246A0F7B1FDC015F96ED91FC91E60F02
:1014D000F71F4770552781E090E001C0880F4A95BB
:1014E000EAF7482F0130110559F0A8F02E0F3F1FE1
:1014F00002301105E1F0DF91CF911F910F91089516
:101500002E0F3F1FE217F307B1F38191DF0111970F
:10151000842B8C93F7CF80952E0F3F1FE217F30794
:1015200051F39191DF01119798239C93F7CFE21724
:10153000F30709F38191DF01119784278C93F7CF8B
:101540000F931F93FA01DC0156964C915697423047
:10155000E9F04330A1F1413061F514964D915C9171
:10156000DA01AE1BBF0BFD01E21BF30B77FD0BC0D5
:10157000DC0116964D915C916417750724F4AB015C
:10158000BF010E94380A1F910F91089514964D9142
:101590005C91DA01A61BB70BBD0161507109DC013A
:1015A00016964D915C91DA01AE1BBF0BFD01E21B5B
:1015B000F30B77FDE8CFAF010E948909E4CF1696BF
:1015C0004D915C91DA01A61BB70BBD016150710909
:1015D000CDCF0F931F93FA01DC0156964C9156978D
:1015E0004230A9F0433091F1413019F514964D91F4
:1015F0005C91DA01AE1BBF0BFD013197F7FD04C012
:10160000AB01BF010E9489091F910F9108951496A3
:101610004D915C91DA01A61BB70BBD01DC0116965A
:101620004D915C91DA01AE1BBF0BFD013197621B3E
:10163000730BF7FDE9CFDC0116964D915C91E41731
:10164000F50714F7AF010E94380ADECF16964D91C8
:101650005C91DA01A61BB70BBD01621B730BCECFE9
:10166000FC0177FD64C080859185681779070CF0CF
:101670005EC057FD5CC082859385481759070CF002
:1016800056C086898230B1F0833029F1813041F42F
:1016900084819581841B950BAB01BC01615071095C
:1016A0002130310509F108F443C02230310509F435
:1016B00063C0089584819581DC01A61BB70BBD0131
:1016C0006150710986819781DC01A41BB50BAD01C6
:1016D00041505109E5CF86819781861B970BBA014E
:1016E000AC0141505109DCCFCA0157FD0796A3E078
:1016F00095958795AA95E1F7A481B5818A9F900178
:101700008B9F300D9A9F300D1124620F731F078C31
:10171000F0A1E02DE60FF71F4770552721E030E0DC
:1017200001C0220F4A95EAF78081822B80830895B9
:10173000CA0157FD079633E0959587953A95E1F7ED
:10174000A481B5818A9F90018B9F300D9A9F300DA7
:101750001124620F731F078CF0A1E02DE60FF71F15
:101760004770552781E090E001C0880F4A95EAF75D
:10177000809590818923DACFCA0157FD079623E02F
:10178000959587952A95E1F7A481B5818A9F900167
:101790008B9F300D9A9F300D1124620F731F078CA1
:1017A000F0A1E02DE60FF71F4770552721E030E04C
:1017B00001C0220F4A95EAF780818227B7CF0895AA
:1017C0008EBD00000DB407FEFDCF8EB508958CBD13
:1017D0009DBD08950895FC016370668B8481958199
:1017E00026813781613039F0633029F09187808715
:1017F00033872287089531872087938782870895CA
:101800002F923F924F925F926F927F928F929F9210
:10181000AF92BF92CF92DF92EF92FF920F931F93FE
:10182000CF93DF93CDB7DEB76A970FB6F894DEBFDC
:101830000FBECDBF9A8F898F7A8369834A01D22EDA
:1018400018870F833701BC2CDC0159962D913C91F0
:101850005A972115310509F015C118968D919C9163
:101860001997681779070CF0D7C11A968D919C913A
:10187000481759070CF0D0C14C2C512CB6E0CB9E28
:10188000600D711D11247C876B87161617060CF0EE
:10189000C3C1EA2DF0E0FA87E98793E0EE0FFF1F5E
:1018A0009A95E1F7F88BEF87CF01840F951F1816F3
:1018B00019060CF0B1C1A98DBA8D58968C91811181
:1018C00004C0BFEABD1508F4D394A98DBA8DED917B
:1018D000FC9111970284F385E02DCD010995B5E0C7
:1018E000DB9EC0011124E981FA81FC83EB83312C5A
:1018F000212C9C0128593F4F388F2F8B4A2D50E0C7
:101900005E8B4D8BEF89F88DE20DF31D44919E8225
:101910008D82D12CC12C69817A81620D731D7A8BE5
:10192000698B842F90E09C8B8B8BE98DFA8DA08145
:10193000B18140FF82C0F1E0BF126FC0AF126DC035
:101940001C96ED91FC912F813885A4014C0D5D1DF5
:1019500069897A89898D9A8D0995EB89FC89F59534
:10196000E7954E2F5FEFC51AD50A6D817E818D896F
:101970009E89680F791F7E836D8398E0C916D10414
:1019800081F6AFEF2A1A3A0AEB81FC81E40DF51DCE
:10199000FC83EB83F5E02F16310409F0B3CF2F81E0
:1019A000388526153705B9F0A98DBA8DED91FC91D2
:1019B000B1E0BB1257C0AB1255C069817A816B5F31
:1019C0007F4F0088F189E02D830128E030E0A401F9
:1019D000898D9A8D0995A98DBA8DED91FC911197FC
:1019E0000688F789E02DCD016A960FB6F894DEBF20
:1019F0000FBECDBFDF91CF911F910F91FF90EF9060
:101A0000DF90CF90BF90AF909F908F907F906F901E
:101A10005F904F903F902F9009941E96ED91FC910E
:101A2000EF80F88409851A8592014D815E816B8172
:101A30007C81898D9A8D099590CF2F8138852615C7
:101A4000370509F48ACF31E0B31207C0A31205C0ED
:101A50001C96ED91FC91930178CF1E96ED91FC912F
:101A60007301E0CF6B857C85641975090684F78561
:101A7000E02D73010F8518899201A401898D9A8D3B
:101A80000995A9CFF90134969491329745915491D3
:101A9000D91AB7E0DB9E400D511D1124F9012591A3
:101AA00034913C8B2B8BFA0125903490FA013296BD
:101AB000749031963491398B32966490319644907B
:101AC00041E04C1518F04A1508F07FC0662D062C31
:101AD000000C770B7C836B83842D042C000C990BFA
:101AE0009E838D83A98DBA8DED91FC91119702840F
:101AF000F385E02DCD010995512CD12CC12CEA2D77
:101B0000F0E0FA87E9872B2D30E03C872B87A40192
:101B1000440D511D47FC5A95588F4F8B69817A812E
:101B2000660D711D67FC7A957E876D877989C7166A
:101B300008F051CF2C2D30E04D815E81420F531FB4
:101B4000A985BA854A9FC0014B9F900D5A9F900D61
:101B50001124FC01E80DF91DF88BEF87852D612C10
:101B60004F89588D420F531F5E8B4D8B671408F0C1
:101B700050C044244394480E877041F4C10101963B
:101B8000EB89FC89E20DF31DD4901C01D7FE19C02E
:101B9000A98DBA8DED91FC91662D70E0B1E0BB127C
:101BA00019C0AB1217C02D853E85620F731F0484C8
:101BB000F585E02D2F8138854D895E89898D9A8D37
:101BC0000995DD0C6394842DD1CF1E821D821C8269
:101BD0001B8288CF4B815C81640F751FAB85BC85F0
:101BE0006A9FC0016B9F900D7A9F900D11246981AF
:101BF0007A81680F791F0684F785E02DEF80F884DD
:101C000009851A859D014F855889898D9A8D099579
:101C1000D8CF570CC3948ACF6A960FB6F894DEBF1C
:101C20000FBECDBFDF91CF911F910F91FF90EF902D
:101C3000DF90CF90BF90AF909F908F907F906F90EC
:101C40005F904F903F902F9008958F929F92AF9208
:101C5000CF92EF92FF920F931F93CF93DF93EC01FC
:101C6000262F898D9A8D009709F051C06A30D1F4E2
:101C70001D861C868D8948E0849F900111248E85E5
:101C80009F85820F931F9F878E8781E090E0DF9171
:101C9000CF911F910F91FF90EF90CF90AF909F90B9
:101CA0008F9008956D3089F3CC88AD888F89882313
:101CB000C1F08C859D8536E0C39E800D911D112459
:101CC000488559854817590764F44E855F851D86F8
:101CD0001C8638E0A39EC0011124840F951F9F87A6
:101CE0008E87EA88FB88088919894E855F856C850F
:101CF0007D85CE010E94000C2C898C859D8546E057
:101D0000249F800D911D11249D878C87BECF6A3042
:101D100069F41D861C86FC013896E4912D898E8518
:101D20009F85E29F800D911D1124ADCF6D3009F488
:101D3000ACCFFC0134963491631708F4A6CF3296E9
:101D4000E491E61708F4A1CFFC01329685909490B7
:101D5000462F431B342F47E0349F800C911C1124E5
:101D6000F401329634913196E4913323A9F1EE23B4
:101D700099F1CC88F4013596E491AD884F894423DC
:101D800001F10E2E000CFF0BE30FF11DCE9EA00102
:101D9000CF9E500D11246C857D85460F571F688599
:101DA0007985641775076CF44E855F851D861C86E2
:101DB000FC013896E491AE9E400D511D11245F87C1
:101DC0004E87EA88FB88088919894E855F856C856E
:101DD0007D85CE010E94000CF4013496E4912C899B
:101DE0008C859D85E29F800D911D11248DCF6F9272
:101DF0007F928F929F92AF92BF92CF92DF92EF929B
:101E0000FF920F931F93CF93DF93EC016B015A0165
:101E100039014801E881F9810284F385E02D0995B3
:101E2000E881F9810288F389E02D87019301A501FA
:101E3000B601CE010995A501480D591D4150510922
:101E4000E881F9810288F389E02D9301B601CE0182
:101E50000995E881F9810088F189E02D9401A501B7
:101E6000B601CE010995C60CD71CB60161507109A7
:101E7000E881F9810088F189E02D9401A501CE0166
:101E80000995E881F9810688F789E02DCE01DF9177
:101E9000CF911F910F91FF90EF90DF90CF90BF9067
:101EA000AF909F908F907F906F9009946F927F92E8
:101EB0008F929F92AF92BF92CF92DF92EF92FF925A
:101EC0000F931F93CF93DF935C01EB016A014901EC
:101ED00038018701DC01ED91FC916217730719F558
:101EE000641675062CF0962D872D3A01C92ED82E32
:101EF0009601261937092F5F3F4F048CF58DE02D91
:101F0000A301BE01C5010995DF91CF911F910F91EA
:101F1000FF90EF90DF90CF90BF90AF909F908F9009
:101F20007F906F9008954615570591F4261737074F
:101F300024F0892D4B01C22FD82F9E012819390971
:101F40002F5F3F4F068CF78DE02DA601B401DACF4D
:101F50000284F385E02D0995D501ED91FC9104886B
:101F6000F589E02D83019401A601BE01C501099503
:101F7000D501ED91FC910688F789E02DC501DF912F
:101F8000CF911F910F91FF90EF90DF90CF90BF9076
:101F9000AF909F908F907F906F900994EF92FF92F7
:101FA0000F931F93DC011A960D911C911B971896A5
:101FB0002D913C911997ED91FC9100A0F1A1E02D9C
:101FC0007B0150E040E070E060E009951F910F91C7
:101FD000FF90EF9008954F925F926F927F928F9251
:101FE0009F92AF92BF92CF92DF92EF92FF920F93A8
:101FF0001F93CF93DF936C012B015A0139014801E4
:10200000DC01ED91FC910284F385E02D0995E2015C
:10201000640C751CD601ED91FC91C615D7055CF4D6
:102020000088F189E02D87019401A501BE01C60158
:1020300009952196EFCF0688F789E02DC601DF913B
:10204000CF911F910F91FF90EF90DF90CF90BF90B5
:10205000AF909F908F907F906F905F904F9009947A
:102060008F929F92AF92BF92CF92DF92EF92FF92A8
:102070000F931F93CF93DF93EC015B014A0169013A
:10208000E881F9810284F385E02D099595012C0DF5
:102090003D1D21503109E881F9810488F589E02D41
:1020A00078018401A401B501CE010995E881F98187
:1020B0000688F789E02DCE01DF91CF911F910F9116
:1020C000FF90EF90DF90CF90BF90AF909F908F9058
:1020D00009948F929F92AF92BF92CF92DF92EF922C
:1020E000FF920F931F93CF93DF93EC015B014A01A3
:1020F00069017801E881F9810284F385E02D099571
:10210000C80CD91C860101501109E881F9810488A5
:10211000F589E02D9501A401B501CE010995E8816D
:10212000F9810688F789E02DCE01DF91CF911F91CB
:102130000F91FF90EF90DF90CF90BF90AF909F9066
:102140008F900994EF92FF920F931F93DC01ED9112
:10215000FC9100A0F1A1E02D09951F910F91FF9036
:10216000EF9008950F931F93DC01ED91FC91068C85
:10217000F78DE02D09951F910F9108950F931F93EF
:10218000DC01ED91FC91048CF58DE02D09951F91FA
:102190000F910895DC01ED91FC910084F185E02D13
:1021A00009943F924F925F926F927F928F929F928B
:1021B000AF92BF92CF92DF92EF92FF920F931F9355
:1021C000CF93DF9300D000D0CDB7DEB75C013B01E9
:1021D0006A014901280187E0480E511C93E055949B
:1021E00047949A95E1F7CA018E0D9F1D9A838983C2
:1021F000F12CE12C312C1C821B828B819C818770FD
:102200009927330C892B61F4EB81FC8183E0F595F0
:10221000E7958A95E1F7EE0DFF1DE80DF91D349065
:1022200037FE0AC021E030E0A6016B817C81660D9B
:10223000771DC5010E94CA108B819C8101969C83E9
:102240008B8308171907C9F69FEFC91AD90AE40C3E
:10225000F51C89819A81C816D90669F60F900F90EE
:102260000F900F90DF91CF911F910F91FF90EF9002
:10227000DF90CF90BF90AF909F908F907F906F90A6
:102280005F904F903F9008952F923F924F925F92B0
:102290006F927F928F929F92AF92BF92CF92DF9276
:1022A000EF92FF920F931F93CF93DF9300D000D054
:1022B00000D0CDB7DEB73C016A013E832D83FC829E
:1022C000EB825801A41AB50AB7FE03C0B194A194D9
:1022D000B1088D809E80861A970A97FE03C091945C
:1022E000819491088A149B045CF0902F812F0D81BA
:1022F0001E819D838E839C2D8D2D6B01692F782FE0
:102300000C151D055CF09D818E817E836D83692F88
:10231000782F902F812F8601C92ED82E1601201AD2
:10232000310A2B012D813E81421A530A57FE03C008
:10233000519441945108710137FE03C03FEFE31AF5
:10234000F30AF594E7948D819E81861797075CF5D3
:10235000A1E0B0E0BA83A983C016D1064CF1D30145
:10236000ED91FC910484F585E02D2B813C81A80141
:102370006D817E818A149B041CF04D815E81B801C1
:10238000C3010995E418F508F7FE0AC02D813E81C6
:1023900089819A81280F391F3E832D83E20CF31C1B
:1023A0000F5F1F4FD9CF2FEF3FEF3A832983D4CF51
:1023B00026960FB6F894DEBF0FBECDBFDF91CF914A
:1023C0001F910F91FF90EF90DF90CF90BF90AF9053
:1023D0009F908F907F906F905F904F903F902F9045
:1023E00008952091AB02260F3327331F2132310588
:1023F000ECF42091CF02FC0190E080E0243069F001
:1024000082E00895A091AB022191AC0145575D4F48
:10241000A40FB52FB11D2C930196861798F38091C8
:10242000AB02680F6093AB0280E0089581E00895ED
:102430001092CF0281E08093D1021092D00261E02D
:1024400082E10E94D30861E083E10E94D308E9EBB6
:10245000F0E080818E7F808380818D7F808388E41F
:102460008093B80085E48093BC000895CF93DF93F8
:1024700091E090938A028823B9F0C091B800D0917E
:10248000BA008091BC008A7B8093BC0060E082E14E
:102490000E94D30860E083E10E94D3080E941812D2
:1024A000D093BA00C093B800DF91CF910895E09126
:1024B000040380910303E81730F4F0E0EB59FD4F7B
:1024C000808190E008958FEF9FEF0895909104032D
:1024D000809103032FEF3FEF981748F4E92FF0E0C6
:1024E000EB59FD4F208130E09F5F90930403C901B9
:1024F00008958091030390910403891B990B08951B
:10250000CF92DF92EF92FF920F931F93CF93DF93BF
:102510007C01CB018A0120910C03222389F0EB017D
:102520006B01C40ED51ECC15DD0569F06991D7018C
:10253000ED91FC910190F081E02DC7010995F3CF59
:10254000642F0E94F111C801DF91CF911F910F916B
:10255000FF90EF90DF90CF900895CF93DF931F927D
:10256000CDB7DEB7698320910C032223F9F02091C7
:102570000903203258F021E030E0FC01338322834C
:1025800090E080E00F90DF91CF91089580910A0351
:10259000E82FF0E0EB5BFD4F998190838F5F809394
:1025A0000A038093090381E090E0ECCF61E0CE0163
:1025B00001960E94F111F7CFCF92DF92EF92FF9236
:1025C0000F931F93CF93DF93D091090381E0D13212
:1025D00008F09CC0C0910B030E9432096B017C0182
:1025E0008091CF0281116CC082E08093CF0281E0A4
:1025F0008093D1028FEF8093CE021092F302D0939A
:10260000F202A5E4B2E0E2EDF2E080E0D8138DC082
:102610001092F4028091F402CC0FC82BC093F40204
:102620008091D002813009F084C01092D0020E94C3
:1026300032096B017C018091F4028093BB00809190
:10264000860290918702A0918802B0918902892B1D
:102650008A2B8B2BA1F00E943209009186021091E7
:10266000870220918802309189026C197D098E09B8
:102670009F09061717072807390708F442C08091F9
:10268000BC0083FDD8CF85EC8093BC000E9432094A
:102690006B017C018091CF02823009F44CC08091A3
:1026A000CE028F3F09F469C08091CE02803209F4D6
:1026B00066C08091CE02803309F463C084E026C0F6
:1026C0008091860290918702A0918802B091890240
:1026D000892B8A2B8B2B09F483CF0E94320900911E
:1026E00086021091870220918802309189026C192C
:1026F0007D098E099F09061717072807390708F073
:102700006FCF809185020E94361285E010920A03F5
:102710001092090310920C03DF91CF911F910F913A
:10272000FF90EF90DF90CF9008959D9191938F5FF0
:102730006DCF85EEA9CF8091860290918702A091FE
:102740008802B0918902892B8A2B8B2B09F4A2CFA6
:102750000E9432090091860210918702209188021E
:10276000309189026C197D098E099F090617170798
:102770002807390708F08ECFC4CF80E0C7CF82E0AA
:10278000C5CF83E0C3CFFF920F931F93CF93DF9307
:10279000F82ED92FC62F8091E6039091E70300977A
:1027A00009F452C02091EA0331E030930C032093E6
:1027B0000B0310920A0310920903DC01ED91FC91C6
:1027C0000190F081E02D60E009950F2D1D2FD1E0E3
:1027D000FF24F394C1508091E6039091E703CF3F2B
:1027E00061F1D032C8F00E94DC128091E603909132
:1027F000E7032091EA03F0920C0320930B0310925D
:102800000A0310920903DC01ED91FC910190F08123
:10281000E02D60E00995D1E08091E6039091E70317
:10282000F8016491DC01ED91FC910190F081E02DC3
:102830000995DF5F0F5F1F4FCDCFDF91CF911F91C4
:102840000F91FF900C94DC12E091F603F091F703E6
:1028500090818091FC038095892380830F2D1D2F0B
:10286000C15008F438C0F80184912091E4033091FC
:10287000E503232B29F00E94E00B0F5F1F4FF0CFE1
:1028800028E030E040E8E091F203F091F30390910A
:10289000FA03582F5423D9F05081952B9083E0915F
:1028A000F403F091F50390815091FB03952B9083F5
:1028B000E091F403F091F50350819091FB03909522
:1028C00095239083469521503109E9F6D6CF508162
:1028D00090959523E3CFDF91CF911F910F91FF90BA
:1028E00008951F93CF93DF93EC018D8D9E8D0097FC
:1028F00021F1162F29A131E030930C0320930B0313
:1029000010920A0310920903DC01ED91FC910190F1
:10291000F081E02D60E009958D8D9E8DDC01ED91BB
:10292000FC910190F081E02D612F09958D8D9E8D98
:10293000DF91CF911F910C94DC12ADA5BEA59C91A7
:102940008BA9809589238C938B8D9C8D892B31F05D
:10295000862FDF91CF911F910C94E00B28E030E09F
:1029600080E8A9A5BAA599A9462F4823C1F04C91A2
:10297000942B9C93ABA5BCA59C914AA9942B9C93AA
:10298000ABA5BCA54C919AA9909594239C93869550
:102990002150310931F7DF91CF911F9108954C916A
:1029A00090959423E6CFEF92FF920F931F93CF93CE
:1029B000DF938091E6039091E703892B09F493C09C
:1029C0002091FE033091FF034091000450910104D7
:1029D00060E074E284EF90E00E94F024205131091D
:1029E0004109510956954795379527952093B80089
:1029F00065E084E89EE00E94C3136091CD036150BE
:102A000089EC93E00E9471142091CF033091D003A0
:102A1000C901079697FD079623E0959587952A9516
:102A2000E1F72091CD033091CE03829F8001839FF7
:102A3000100D929F100D1124C091E803D091E9036D
:102A40008091E6039091E7030C0F1D1F009709F496
:102A500089C02091EA0331E030930C0320930B03EB
:102A600010920A0310920903DC01ED91FC91019090
:102A7000F081E02D60E40995FF24F394EE24E394C3
:102A80008091E6039091E7030C171D0709F442C0FB
:102A9000BFE1BF15D0F40E94DC128091E603909153
:102AA000E7032091EA03E0920C0320930B031092BA
:102AB0000A0310920903DC01ED91FC910190F08171
:102AC000E02D60E40995FF24F3948091E603909152
:102AD000E7036991DC01ED91FC910190F081E02D1B
:102AE0000995F394CDCF8091E4039091E503892B70
:102AF00031F080910704909108040E94E70BE09167
:102B0000F803F091F90390818091FD03809589236A
:102B100080836ECF0E94DC128091E6039091E703E0
:102B2000892B09F460C02091020430910304409184
:102B300004045091050460E074E284EF90E00E9488
:102B4000F02420513109410951095695479537958F
:102B500027952093B800DF91CF911F910F91FF909F
:102B6000EF900895E091F603F091F7038081909142
:102B7000FC03892B80830C171D0771F2899120912A
:102B8000E4033091E503232B19F00E94E00BF3CF0F
:102B900028E030E040E8E091F203F091F3039091F7
:102BA000FA03582F5423D9F05081952B9083E0914C
:102BB000F403F091F50390815091FB03952B9083E2
:102BC000E091F403F091F50350819091FB0390950F
:102BD00095239083469521503109E9F6CCCF508159
:102BE00090959523E3CFE091F803F091F90380816C
:102BF0009091FD03892B8083AECF1F93CF93DF93FA
:102C0000EC01162F8D8D9E8D892BB1F12DA93EA93A
:102C10004FA958AD60E074E284EF90E00E94F02488
:102C20002051310941095109569547953795279506
:102C30002093B80066EA111167EACE010E94711470
:102C40008D8D9E8D892B41F129AD3AAD4BAD5CAD9B
:102C500060E074E284EF90E00E94F024205131099A
:102C60004109510956954795379527952093B80006
:102C7000DF91CF911F9108958B8D9C8D892B21F031
:102C80008EAD9FAD0E94E70BEFA5F8A990818CA9AE
:102C9000809589238083CECFEFA5F8A980819CA958
:102CA000892B8083E5CF089590E080E00895CF934D
:102CB000DF938091020190910301019731F080919F
:102CC0004102909142020197C1F482E00E94AA0859
:102CD000892BB1F4C0910503D09106032196D093BE
:102CE0000603C09305036CE271E080E090E00E946F
:102CF000570981E090E02397E1F0DF91CF910895AB
:102D000083E00E94AA08892BC1F7C0910503D091E6
:102D10000603CE01019790930603809305036CE2AE
:102D200071E080E090E00E945709229730F782E03E
:102D300090E09093060380930503DFCF2091CF03AB
:102D40003091D003C901079697FD079623E095952A
:102D500087952A95E1F72091CD033091CE03829F8C
:102D6000A001839F500D929F500D112470E060E0F0
:102D70008091E8039091E9030C940827AF92BF92E9
:102D8000DF92EF92FF920F931F93CF93DF935C013B
:102D90000AEA13E0D0E0C0E0F801D1908F0175019C
:102DA000EC0EFD1EC7010E94A324D81621F06D2D44
:102DB000C7010E94AB242196C630D10569F78AEA83
:102DC00093E0DF91CF911F910F91FF90EF90DF90F3
:102DD000BF90AF9008950E94FA260F931F93CF9350
:102DE000DF93EC0188819981009759F02A813B811A
:102DF0002617370730F081E0DF91CF911F910F91B7
:102E000008958B016F5F7F4F0E943D26009759F018
:102E1000998388831B830A832C813D81232B59F757
:102E2000FC011082E8CF80E0E7CFCF93DF93EC0185
:102E300088819981009711F00E94B4251982188227
:102E40001D821C821B821A82DF91CF910895EF921E
:102E5000FF920F931F93CF93DF93EC01FB01E08070
:102E6000F180E114F10411F10481158101151105BE
:102E7000A9F08C819D81080F191FB801CE010E9415
:102E8000ED16882399F0288139818C819D81B701C5
:102E9000820F931F0E940F271D830C83CE01DF91A9
:102EA000CF911F910F91FF90EF900895CE010E9456
:102EB0001517F4CFEF92FF920F931F93CF93DF93E9
:102EC000EC018617970781F0FB0100811181011544
:102ED000110539F0E480F580B7010E94ED168111EB
:102EE0000BC0CE010E941517CE01DF91CF911F912B
:102EF0000F91FF90EF900895FD82EC82B8018881D8
:102F000099810E940F27F0CFFC0180819181009769
:102F100011F00C94B4250895EF92FF920F931F9334
:102F2000CF93DF93EC017B01198218821B821A82F6
:102F30001D821C82FB0101900020E9F731978F016F
:102F4000061B170BB8010E94ED16811109C0CE01B6
:102F5000DF91CF911F910F91FF90EF900C94151777
:102F60001D830C83B70188819981DF91CF911F91D7
:102F70000F91FF90EF900C940F27FB010190002020
:102F8000E9F73197AF01461B570BDC01ED91FC913E
:102F90000280F381E02D09940F931F93CF93DF9369
:102FA000EC01FB014481558160817181E881F981E7
:102FB0000280F381E02D09958C0165E771E0CE0177
:102FC0000E94BD17800F911FDF91CF911F910F912C
:102FD000089585E00E94AA08892B61F48091050379
:102FE00090910603029731F480914302909144023C
:102FF000029731F085E00E94AA08892BA9F1089573
:1030000085E00E94AA08892BD9F30E949E1681E0D0
:103010008093DD038093DE031092DA031092D903CC
:1030200081E090E09093DC038093DB031092D60361
:103030001092D50383E190E09093D8038093D70357
:1030400061EB73E089EC93E00E94CC1761EB73E0D5
:103050008DE093E00E94CC170E94D31468E873E1DE
:1030600080E090E00C94570980910503909106034D
:10307000019779F58091430290914402019749F5B7
:1030800085E00E94AA08892BD9F30E949E1681E050
:103090008093DD038093DE031092DA031092D9034C
:1030A00081E090E09093DC038093DB031092D603E1
:1030B0001092D50383E190E09093D8038093D703D7
:1030C00067EB73E089EC93E00E94CC1767EB73E049
:1030D000BFCF0895CF93DF93BC0189EC93E00E94AA
:1030E000BD17EC0165E771E089EC93E00E94BD1724
:1030F0008C0F9D1FDF91CF910895EF92FF920F9358
:103100001F93CF93DF9300D000D000D0CDB7DEB7B0
:1031100000910503109106030130110509F089C0E3
:1031200010934402009343020E949E1681E0809314
:10313000DD038093DE031092DA031092D90310931B
:10314000DC030093DB031092D6031092D50389E0D1
:1031500090E09093D8038093D70388E791E00E9492
:103160006A181092DA031092D9031093DC030093CB
:10317000DB039EE0E92EF12CF092D603E092D5031A
:103180008CE190E09093D8038093D7036EE871E0D0
:10319000CE0101960E948C1767EB73E0CE01019679
:1031A0000E942717BC0189EC93E00E94CC17CE0146
:1031B00001960E9484171093DC030093DB031093A5
:1031C000DA030093D903F092D603E092D50380E3AB
:1031D00090E09093D8038093D70361E971E0CE012A
:1031E00001960E948C1761EB73E0CE0101960E945C
:1031F0002717BC0189EC93E00E94CC17CE01019601
:103200000E9484170E94D3148091070390910803B1
:10321000019711F40E94E91726960FB6F894DEBFC5
:103220000FBECDBFDF91CF911F910F91FF90EF9017
:1032300008950230110541F71093440200934302B0
:103240000E949E1681E08093DD038093DE0310923E
:10325000DA031092D90301E010E01093DC0300932D
:10326000DB031092D6031092D50389E090E090938F
:10327000D8038093D70388E791E00E946A181093DF
:10328000DC030093DB031093DA030093D9038EE091
:10329000E82EF12CF092D603E092D5038CE190E079
:1032A0009093D8038093D7036EE871E0CE01019626
:1032B0000E948C1767EB73E0CE0101960E942717DE
:1032C000BC0189EC93E00E94CC17CE0101960E94CC
:1032D00084171092DA031092D9031093DC03009341
:1032E000DB0371CFEF92FF921F93CF93DF93809117
:1032F000070390910803049709F00EC1C0910503DC
:10330000D0910603C130D10509F087C00E949E16F6
:1033100011E01093DD031093DE031092DA03109294
:10332000D903D093DC03C093DB031092D603109231
:10333000D5039EE0E92EF12CF092D803E092D7035A
:1033400084E991E00E946A181092DA031092D9037E
:10335000D093DC03C093DB03F092D603E092D50355
:103360008CE190E09093D8038093D70382EA91E0B8
:103370000E946A18D093DC03C093DB03D093DA0376
:10338000C093D903F092D603E092D50380E390E096
:103390009093D8038093D7038CEA91E00E946A1837
:1033A0000E94D31485E00E94AA08892B09F0B4C0BA
:1033B0000E949E161093DD031093DE031092DA0331
:1033C0001092D903D093DC03C093DB031092D60391
:1033D0001092D50383E190E09093D8038093D703B4
:1033E00090E080E00E94BE166AEA73E089EC93E008
:1033F0000E94CC176AEA73E08DE093E00E94CC173C
:103400000E94D31468E873E180E090E0DF91CF91EF
:103410001F91FF90EF900C945709229709F07CC000
:103420000E949E1611E01093DD031093DE031092AC
:10343000DA031092D903C1E0D0E0D093DC03C0934B
:10344000DB031092D6031092D5038EE0E82EF12C08
:10345000F092D803E092D70384E991E00E946A18C1
:10346000D093DC03C093DB03D093DA03C093D9037A
:10347000F092D603E092D5038CE190E09093D803CC
:103480008093D70382EA91E00E946A181092DA03CF
:103490001092D903D093DC03C093DB03F092D603E0
:1034A000E092D50380E390E09093D8038093D70314
:1034B0008CEA91E00E946A180E94D31485E00E9471
:1034C000AA08892B49F50E949E161093DD031093DC
:1034D000DE031092DA031092D903D093DC03C09379
:1034E000DB031092D6031092D50383E190E0909312
:1034F000D8038093D7036AEA73E089EC93E00E94D3
:10350000CC176AEA73E08DE093E00E94CC178AE062
:1035100090E00E94BE1674CFDF91CF911F91FF9073
:10352000EF900895CF92DF92EF92FF920F931F9347
:10353000CF93DF9300D000D000D0CDB7DEB785E0C9
:103540000E94AA08892B09F0BEC0809105039091C2
:103550000603019709F0B7C0809107039091080313
:10356000892B09F0B0C085E00E94AA08892BD9F305
:1035700081E090E090930803809307039AEAE92E94
:1035800093E0F92E670110E000E0C8010E94A32437
:10359000F60181936F010F5F1F4F06301105A9F7E8
:1035A0006AEA73E087EB93E00E945A170AE010E0A2
:1035B000C8010E94A324F70181937F010F5F1F4F71
:1035C00000311105A9F76AEA73E081EB93E00E94EC
:1035D0005A170E949E1681E08093DD038093DE03DC
:1035E0001092DA031092D90301E010E01093DC038B
:1035F0000093DB031092D6031092D50389E090E08C
:103600009093D8038093D70388E791E00E946A18CB
:103610001093DC030093DB031093DA030093D903C8
:103620008EE0E82EF12CF092D603E092D50380E3F1
:1036300090E09093D8038093D7036EE871E0CE01B9
:1036400001960E948C1767EB73E0CE0101960E94F1
:103650002717BC0189EC93E00E94CC17CE0101969C
:103660000E9484171093DC030093DB031093DA03AA
:103670000093D903F092D603E092D5038CE190E059
:103680009093D8038093D70361E971E0CE0101964E
:103690000E948C1761EB73E0CE0101960E94271700
:1036A000BC0189EC93E00E94CC17CE0101960E94E8
:1036B00084170E94D3148091070390910803019707
:1036C00011F40E947D1826960FB6F894DEBF0FBE47
:1036D000CDBFDF91CF911F910F91FF90EF90DF90C1
:1036E000CF900895CF93DF93682F89EC93E00E94E9
:1036F000250EEC0165E771E089EC93E00E94BD17AF
:103700008C0F9D1FDF91CF910895EF92FF920F9341
:103710001F93CF93DF93CDB7DEB728970FB6F894FA
:10372000DEBF0FBECDBF85E00E94AA08892B09F03D
:1037300040C080910503909106030297D1F58091D6
:10374000070390910803892BA1F585E00E94AA0840
:10375000892BD9F30E949E1681E08093DD0380932C
:10376000DE031092DA031092D90381E090E0909387
:10377000DC038093DB031092D6031092D5031092E2
:10378000D8031092D70386EB91E00E946A180E943A
:10379000D31468EC70E080E090E00E94570982E06A
:1037A00090E0909308038093070310920301109216
:1037B00002018091070390910803029709F0FBC171
:1037C00082E00E94AA08892B89F582E00E94AA085B
:1037D000892BD9F380913F029091400201969093FA
:1037E000400280933F02865F9E4FFC018081809360
:1037F000B00391E09093DD039093DE031092DA031F
:103800001092D90321E030E03093DC032093DB03F6
:103810001092D6031092D5032AE030E03093D803FB
:103820002093D7030E94721B0E94D31483E00E944E
:10383000AA08892B89F583E00E94AA08892BD9F36D
:1038400080913F02909140020197909340028093B3
:103850003F02865F9E4FFC0180818093B00391E020
:103860009093DD039093DE031092DA031092D90354
:1038700021E030E03093DC032093DB031092D60389
:103880001092D5032AE030E03093D8032093D70379
:103890000E94721B0E94D31484E00E94AA08892B04
:1038A00009F084C084E00E94AA08892BD9F3809192
:1038B000000190910101079690930101809300010E
:1038C0001091B0031A8219821C821B821E821D82F3
:1038D0006AEA73E0CE0101960E945A171F83188688
:1038E0000D811E810F5F1F4FB801CE0101960E940E
:1038F000ED16882309F4A0C029813A818D819E812B
:10390000BE01695F7F4F820F931F0E940F271E83A6
:103910000D83BE016F5F7F4F8AEA93E00E945A17C2
:10392000CE0101960E94841781E08093DD0380938D
:10393000DE0301E010E01093DC030093DB0310933F
:10394000DA030093D9031092D6031092D50387E1CE
:1039500090E09093D8038093D70388EC91E00E9485
:103960006A181093DC030093DB031093DA030093CF
:10397000D90380910001909101019093D603809327
:10398000D50381E290E09093D8038093D703809190
:10399000B0030E94721B0E94D31480913D0290914B
:1039A0003E02019690933E0280933D0285E00E9484
:1039B000AA088C01892B09F0E8C085E00E94AA08BA
:1039C000892BD9F30E949E1681E08093DD038093BA
:1039D000DE031092DA031092D90381E090E0909315
:1039E000DC038093DB038FE090E09093D603809319
:1039F000D5031092D8031092D70389ED91E00E946D
:103A00006A1820913D0230913E024091AE035091E0
:103A1000AF036091AA037091AB0380913C0202173F
:103A200013077CF40417150718F46115710509F4E0
:103A300080E00F5F1F4FF3CFCE0101960E94151754
:103A400068CF80933C0282E08093DD038093DE03A5
:103A500083E290E09093D6038093D50384E190E0D5
:103A60009093D8038093D70301E010E01093DC0318
:103A70000093DB031093DA030093D9036AEA73E03F
:103A800089EC93E00E94CC17FF24F394F092DD03BD
:103A9000F092DE031092D6031092D5038BE290E0F1
:103AA0009093D8038093D7031093DC030093DB0338
:103AB0001093DA030093D90388EE91E00E946A180C
:103AC0000E94D314109342020093410260EA7FE007
:103AD00080E090E00E94570984E090E09093080312
:103AE0008093070310930301009302010E9457166D
:103AF0000E949E16F092DD03F092DE031092DA032C
:103B00001092D9031093DC030093DB031092D603C9
:103B10001092D5038EE0E82EF12CF092D803E092BB
:103B2000D70384E991E00E946A181093DC030093A4
:103B3000DB031093DA030093D903F092D603E092EB
:103B4000D50380E390E09093D8038093D7038CEA69
:103B500091E00E946A181093DC030093DB0310933A
:103B6000DA030093D903F092D603E092D5038CE1F7
:103B700090E09093D8038093D70382EA91E00E946B
:103B80006A180E94D3140E94721980913F0290918A
:103B900040024B9721F41092400210923F02809114
:103BA0003F029091400297FF06C08AE190E0909317
:103BB000400280933F0228960FB6F894DEBF0FBEF6
:103BC000CDBFDF91CF911F910F91FF90EF9008959E
:103BD00085ED8093BC008091860290918702A09130
:103BE0008802B09189020796A11DB11D23E0B69508
:103BF000A795979587952A95D1F72091BC0024FD2C
:103C000003C01092CF02089540918602509187021E
:103C10006091880270918902452B462B472B69F3EE
:103C20000097A105B10541F025E32A95F1F70000C1
:103C30000197A109B109E1CF809185020C94361258
:103C40001F920F920FB60F9211242F933F934F9311
:103C50005F936F937F938F939F93AF93BF93EF93F4
:103C6000FF938DE093E00E94F207FF91EF91BF91E7
:103C7000AF919F918F917F916F915F914F913F9104
:103C80002F910F900FBE0F901F9018951F920F92BB
:103C90000FB60F9211242F938F939F93EF93FF935F
:103CA000E0911D03F0911E038081E0912303F091C8
:103CB000240382FD1BC09081809126038F5F8F7348
:103CC00020912703821741F0E0912603F0E0E35FA3
:103CD000FC4F958F80932603FF91EF919F918F91D9
:103CE0002F910F900FBE0F901F9018958081F4CFE9
:103CF0001F920F920FB60F9211242F933F938F9321
:103D00009F93AF93BF938091F6029091F702A09199
:103D1000F802B091F9023091F50223E0230F2D371C
:103D200058F50196A11DB11D2093F5028093F6026E
:103D30009093F702A093F802B093F9028091FA02EF
:103D40009091FB02A091FC02B091FD020196A11D91
:103D5000B11D8093FA029093FB02A093FC02B093F2
:103D6000FD02BF91AF919F918F913F912F910F9045
:103D70000FBE0F901F90189526E8230F0296A11DE5
:103D8000B11DD2CF1F920F920FB60F9211242F9315
:103D90003F934F935F936F937F938F939F93AF93D3
:103DA000BF93EF93FF938091B900887F803609F429
:103DB0004AC0F0F5883209F4A7C018F5803109F43B
:103DC0009BC0B8F4882309F4F9C0883009F494C082
:103DD000FF91EF91BF91AF919F918F917F916F91E3
:103DE0005F914F913F912F910F900FBE0F901F90B9
:103DF0001895883109F488C0803251F78093CE023B
:103E000014C0803409F49DC040F48033B9F3883382
:103E1000F9F68093CE0285ECB0C0803509F485C0F8
:103E2000883509F496C0883499F60E94E81DD0CFF1
:103E3000883909F48CC038F5883729F050F4883671
:103E400011F0803729F683E08093CF021092CD02E3
:103E500057C0883809F47BC0803919F0803809F0E0
:103E6000B7CF8091CD02803208F071C0E091CD02D1
:103E700081E08E0F8093CD028091BB00F0E0E3558E
:103E8000FD4F80833DC0803B39F0E0F4803A09F477
:103E900079C0883A09F09CCF84E08093CF021092D9
:103EA000AC021092AB02E0910103F091020309957C
:103EB0008091AB0281110FC081E08093AB02109220
:103EC0008B0209C0803C09F4A6CF883C09F4A3CF3B
:103ED000883B09F07DCFE091AC0281E08E0F8093AA
:103EE000AC02F0E0E557FD4F80818093BB009091DC
:103EF000AC028091AB0229C08091F4028093BB0098
:103F000085EC8093BC0064CF9091F3028091F20223
:103F1000981758F5E091F30281E08E0F8093F30239
:103F2000F0E0EE52FD4F8081E9CFE091F30281E0B5
:103F30008E0F8093F3028091BB00F0E0EE52FD4FB4
:103F400080839091F3028091F2029817C8F285E87D
:103F5000D8CFE091F30281E08E0F8093F30280913D
:103F6000BB00F0E0EE52FD4F80838091D1028111C1
:103F70005CCF81E08093D00284EA8093BC001092F1
:103F8000CF0226CF85EC8093BC001092CF028091A7
:103F9000CD02803230F4E091CD02F0E0E355FD4FE8
:103FA00010826091CD0270E0E091FF02F091000379
:103FB0008DEA92E009951092CD020ACF1092CE02BE
:103FC00034CFEDE0F3E01382128248EE53E060E07C
:103FD00070E0448355836683778389E291E091831F
:103FE000808385EC90E09587848784EC90E09787C8
:103FF000868780EC90E0918B808B81EC90E0938BB6
:10400000828B82EC90E0958B848B86EC90E0978B92
:10401000868B118E128E138E148EADEBB3E0139639
:104020001C921E92129714964D935D936D937C9300
:1040300017978BE391E011969C938E93E9ECF3E054
:104040001382128220E830E03583248380E490E0FC
:10405000978386833187208793878287168A158680
:1040600014861786168681E0858B848B2FEF3FEFB1
:10407000338B228B318B208B878B108E128E118E7F
:104080008DE491E091838083148E138EB68FA58F7B
:1040900010A2178E8FEF84A385A386A387A388E041
:1040A00080A780E89AE1A6E0B0E085AB96ABA7AB2D
:1040B000B0AF80EA96E8A1E0B0E081AF92AFA3AFE5
:1040C000B4AF80E586AF17AE67E771E087EB93E0AA
:1040D0000E948C1767E771E081EB93E00E948C17D8
:1040E00087E791E08093B003BC018AEA93E00C94E7
:1040F0008C17789484B5826084BD84B5816084BD5A
:1041000085B5826085BD85B5816085BD80916E0075
:10411000816080936E0010928100809181008260A6
:1041200080938100809181008160809381008091E3
:1041300080008160809380008091B10084608093D2
:10414000B1008091B00081608093B00080917A00CE
:10415000846080937A0080917A00826080937A00F4
:1041600080917A00816080937A0080917A008068E3
:1041700080937A001092C100E0911D03F0911E031C
:1041800082E08083E0911903F0911A031082E0919C
:104190001B03F0911C038FEC808310922503E091A8
:1041A0002103F091220386E08083E0911F03F091C8
:1041B0002003808180618083E0911F03F0912003C0
:1041C000808188608083E0911F03F09120038081CB
:1041D00080688083E0911F03F091200380818F7DB0
:1041E00080838091E8039091E903892B11F5209158
:1041F000CF033091D003C901079697FD0796A3E03E
:1042000095958795AA95E1F72091CD033091CE033E
:10421000AC01429FC001439F900D529F900D11240D
:104220000E9418259093E9038093E803892B09F4F1
:1042300033C30E949E168091CF039091D00360916A
:10424000CD037091CE03AC0181970CF417C240549A
:10425000510957FF02C04F5F5F4F55954795625513
:10426000710977FF02C06F5F7F4F75956795E0E436
:10427000EE2EF12C02E510E024EC37E089EC93E01F
:104280000E94D11082E08093EB038091E60390912D
:10429000E703892B09F40AC28DE38093EA031092A5
:1042A00004031092030310920A03109209030E9460
:1042B000181282E797E0909302038093010383E74B
:1042C00097E0909300038093FF028091F10387FDB4
:1042D0001EC061E00E94010961E08091F1030E942B
:1042E000D30861E070E080E090E00E94570960E050
:1042F0008091F1030E94D3086AE070E080E090E0D2
:104300000E94570961E08091F1030E94D3088091D7
:10431000E6039091E703892B09F487C22091FE03FD
:104320003091FF03409100045091010460E074E279
:1043300084EF90E00E94F024205131094109510995
:1043400056954795379527952093B80064E08EEAF7
:1043500095E00E94C3136091CF03615089EC93E014
:104360000E94711464E08AEA95E00E94C313809170
:10437000EB0364E1813009F460E189EC93E00E9491
:10438000711464E086EA95E00E94C3138FE880937D
:1043900006048091CD039091CE038038910509F0F9
:1043A0005DC28091CF039091D0038034910509F0D4
:1043B00065C28091EB03813009F44EC28FEC80938B
:1043C0000604C2E16AED89EC93E00E9471146C2F3F
:1043D00089EC93E00E94711461E889EC93E00E94FB
:1043E00071146091060489EC93E00E94711469EDE8
:1043F00089EC93E00E9471148091EB0361EF8130AE
:1044000009F462E289EC93E00E94711466E080EAAC
:1044100095E00E94C3138091E6039091E703892BF6
:1044200009F430C220910204309103044091040445
:104430005091050460E074E284EF90E00E94F02463
:1044400020513109410951095695479537952795CE
:104450002093B80062E082E00E94010962E083E0FC
:104460000E94010962E084E00E94010962E085E0A7
:104470000E94010962E086E00E9401090E949E16E6
:1044800050E4E52EF12C00E810E024E83AE050E09A
:1044900040E070E060E089EC93E00E94D1100E945F
:1044A000D31460ED77E080E090E00E94570980919E
:1044B000070390910803892B09F04FC00E949E16B4
:1044C00081E08093DD038093DE031092DA03109283
:1044D000D903C1E0D0E0D093DC03C093DB030EE04E
:1044E00010E01093D6030093D50389E090E09093F9
:1044F000D8038093D70388E092E00E946A18D09393
:10450000DC03C093DB03D093DA03C093D903109389
:10451000D6030093D50380E390E09093D803809373
:10452000D70389E192E00E946A18D093DC03C0931C
:10453000DB03D093DA03C093D9031093D60300931F
:10454000D5038CE190E09093D8038093D7038AE25F
:1045500092E00E946A180E94D31480E0682E80E0E6
:10456000782E55245394CEE0D0E099E0892E912CFA
:1045700020E3C22ED12C3CE1A32EB12CEE24E394F7
:10458000F12C8091070390910803892B09F04CC00E
:1045900000910503109106030230110509F07DC159
:1045A0000E949E165092DD035092DE031092DA03B1
:1045B0001092D903F092DC03E092DB03D093D60390
:1045C000C093D5039092D8038092D70388E092E0FD
:1045D0000E946A181092DA031092D903F092DC0359
:1045E000E092DB03D093D603C093D503D092D803D7
:1045F000C092D70389E192E00E946A18F092DC032E
:10460000E092DB03F092DA03E092D903D093D60371
:10461000C093D503B092D803A092D7038AE292E068
:104620000E946A180E94D3140E94921A0E94851B4D
:104630000E9472190E9457160E94921A0E94851BAE
:104640008091070390910803019711F40E94E917E4
:104650008091070390910803019711F40E947D183F
:104660000E9472196114710409F48BCF0E94DE0755
:10467000882309F486CF0E94000083CF405251095D
:1046800057FF02C04F5F5F4F5595479563577109BC
:1046900077FF02C06F5F7F4F7595679590E2E92EB7
:1046A000F12C03E710E024EE35E0E8CD61E08091E5
:1046B000EF030E94010961E08091F0030E9401096B
:1046C0008091EF03082E000C990BFC01E053FA4F88
:1046D000E491F0E0EE0FFF1FEA53FA4F2591349179
:1046E0003093F7032093F603FC01EE54FA4FE49164
:1046F000E093FC038091F003082E000C990BFC0161
:10470000E053FA4FE491F0E0EE0FFF1FEA53FA4F47
:10471000A591B491B093F903A093F803FC01EE5472
:10472000FA4FE491E093FD038C91E82BEC93809198
:10473000E4039091E503892B09F434C0CFB7F894D2
:104740008091FE02811127C0EAEDF5E08491ECEB47
:10475000F5E09491E82FF0E0EE0FFF1FEA56FA4FD4
:10476000A591B491EC91E92321F461E08AE00E94E3
:10477000D30861E08AE00E9401098CB580618CBD9C
:104780008CB580648CBD61E08DE00E94010961E020
:104790008BE00E9401098091FE028F5F8093FE02F0
:1047A000CFBF93CD61E08091ED030E94010961E0EC
:1047B0008091EE030E9401098091ED03082E000C08
:1047C000990BFC01E053FA4FE491F0E0EE0FFF1F6C
:1047D000EA53FA4F259134913093F3032093F20377
:1047E000FC01EE54FA4FE491E093FA038091EE035A
:1047F000082E000C990BFC01E053FA4FE491F0E015
:10480000EE0FFF1FEA53FA4FA591B491B093F50351
:10481000A093F403FC01EE54FA4FE491E093FB0300
:104820008C91E095E823EC9350CD8091E403909136
:10483000E503892B31F080910704909108040E94D0
:10484000E70BE091F803F091F90390818091FD036B
:104850008095892380837ACD8FE9B1CD803691050B
:1048600069F48091CF039091D003409739F48091FF
:10487000EB03813029F08FEA80930604C2E0A2CDD9
:1048800080E1FACFE091F803F091F90380819091F3
:10489000FD03892B8083DECDFFCF0130110509F0A8
:1048A000C3CE0E949E165092DD035092DE031092FA
:1048B000DA031092D9031093DC030093DB03D09347
:1048C000D603C093D5039092D8038092D70388E093
:1048D00092E00E946A181093DC030093DB031093AC
:1048E000DA030093D903D093D603C093D503D092B3
:1048F000D803C092D70389E192E00E946A1810920F
:10490000DA031092D9031093DC030093DB037ECE0D
:104910008AEA93E00E94841781EB93E00E94841757
:1049200087EB93E00E9484178DE491E09093CA0393
:104930008093C9038091E8039091E903009711F0F7
:104940000C94B4250895F999FECF92BD81BDF89AD3
:10495000992780B50895262FF999FECF1FBA92BDE9
:1049600081BD20BD0FB6F894FA9AF99A0FBE019650
:1049700008952F923F924F925F926F927F928F9203
:104980009F92AF92BF92CF92DF92EF92FF920F93DE
:104990001F93CF93DF93CDB7DEB7CA1BDB0B0FB6E8
:1049A000F894DEBF0FBECDBF09942A8839884888A5
:1049B0005F846E847D848C849B84AA84B984C8843B
:1049C000DF80EE80FD800C811B81AA81B981CE0F32
:1049D000D11D0FB6F894DEBF0FBECDBFED01089517
:1049E000A1E21A2EAA1BBB1BFD010DC0AA1FBB1FF3
:1049F000EE1FFF1FA217B307E407F50720F0A21B65
:104A0000B30BE40BF50B661F771F881F991F1A94D1
:104A100069F760957095809590959B01AC01BD01FB
:104A2000CF010895EE0FFF1F0590F491E02D09943A
:104A30000F931F93CF93DF938230910510F482E0A0
:104A400090E0E0910B04F0910C0430E020E0B0E045
:104A5000A0E0309799F42115310509F44AC0281BCC
:104A6000390B24303105D8F58A819B816115710598
:104A700089F1FB0193838283FE0111C04081518142
:104A80000281138148175907E0F04817590799F434
:104A9000109761F012960C93129713961C9332960E
:104AA000CF01DF91CF911F910F91089500930B04D7
:104AB00010930C04F4CF2115310551F04217530720
:104AC00038F0A901DB019A01BD01DF01F801C1CF76
:104AD000EF01F9CF90930C0480930B04CDCFFE012E
:104AE000E20FF31F81939193225031093983288378
:104AF000D7CF2091090430910A04232B41F420914F
:104B000006013091070130930A0420930904209193
:104B10000401309105012115310541F42DB73EB74F
:104B20004091080150910901241B350BE0910904C3
:104B3000F0910A04E217F307A0F42E1B3F0B28178D
:104B4000390778F0AC014E5F5F4F2417350748F006
:104B50004E0F5F1F50930A04409309048193919371
:104B60009FCFF0E0E0E09CCFCF93DF930097E9F098
:104B7000FC01329713821282A0910B04B0910C04B5
:104B8000ED0130E020E01097A1F420813181820F07
:104B9000931F2091090430910A042817390709F05E
:104BA00061C0F0930A04E0930904DF91CF91089566
:104BB000EA01CE17DF07E8F54A815B819E014115C6
:104BC0005105B1F7E901FB83EA8349915991C40F7B
:104BD000D51FEC17FD0761F4808191810296840F47
:104BE000951FE90199838883828193819B838A83BE
:104BF000F0E0E0E012968D919C9113970097B9F543
:104C00002D913C911197CD010296820F931F209117
:104C1000090430910A042817390739F6309751F5FD
:104C200010920C0410920B04B0930A04A093090490
:104C3000BCCFD383C28340815181840F951FC81795
:104C4000D90761F44E5F5F4F88819981480F591FE2
:104C5000518340838A819B8193838283211531050F
:104C600009F0B0CFF0930C04E0930B049ECFFD014C
:104C7000DC01C0CF13821282D7CFB0E0A0E0E3E422
:104C8000F6E20C94BB248C01009751F4CB010E94F6
:104C900018258C01C801CDB7DEB7E0E10C94D7240C
:104CA000FC01E60FF71F9C0122503109E217F307C0
:104CB00008F49DC0D901CD91DC911197C617D70793
:104CC00098F0C530D10530F3CE01049786179707C9
:104CD00008F3C61BD70B2297C193D1936D937C9396
:104CE000CF010E94B425D6CF5B01AC1ABD0A4C019E
:104CF0008C0E9D1EA0910B04B0910C04512C412CE4
:104D0000F12CE12C109731F58091090490910A045F
:104D10008815990509F05CC04616570608F058C07A
:104D20008091040190910501009741F48DB79EB7E1
:104D30004091080150910901841B950BE817F90770
:104D400008F055C0F0930A04E0930904F901718357
:104D50006083A0CF8D919C91119712966C901297C1
:104D600013967C901397A815B90559F56C0142E08C
:104D7000C40ED11CCA14DB0420F1AC014A195B0932
:104D8000DA011296159780F0628273825183408314
:104D9000D9016D937C93E114F10471F0D70113965E
:104DA000FC93EE93129776CF22968C0F9D1FF901FC
:104DB00091838083F301EFCFF0930C04E0930B0415
:104DC00069CF4816590608F42C017D01D3019ACF0A
:104DD000CB010E9418257C01009749F0AE01B80173
:104DE0000E94FF26C8010E94B425870153CF10E01E
:104DF00000E050CF81E090E0F8940C941627FB017E
:104E0000DC0102C001900D9241505040D8F7089546
:104E1000DC0101C06D9341505040E0F70895FB0163
:104E2000DC0101900D920020E1F7089517E0C6E43F
:104E3000D7E004C0FE010E9412252196C734D10795
:064E4000C9F7F894FFCF52
:104E4600F9FF010000000D04800020414243444563
:104E5600464748494A4B4C4D4E4F50515253545574
:104E6600565758595A0000000014087407A10761E4
:104E760008D207B007C40700000000AD1280125424
:104E860016710779126612571200000000250E747B
:104E96000754165316300B7107CA10A210BE10B273
:104EA6001044117107EB0BFD15A00AE90AEB0FCEB2
:104EB6000F560FF70E0D0A0053656C656363696F35
:104EC6006E6172204F7063696F6E65733A00312DA3
:104ED60000322D00456C696A6120656C20534C4F89
:104EE60054002A4F7063696F6E2031002A4F706339
:104EF600696F6E20320045736372696261206C616E
:104F0600204F7063696F6E004C6574726120636F29
:104F16006E6669726D6164610053752070616C61C3
:104F26006272612065733A00446F6E646520717524
:104F36006965726520677561726461722073752098
:104F46006F7063696F6E3F004D656E7520646520F6
:104F56006F7063696F6E6573002A436F6E6669676B
:104F660075726163696F6E6573002A456C65676962
:0C4F760072204F7063696F6E657300005D
:00000001FF
