:100000000C9462000C948A000C948A000C948A0070
:100010000C948A000C948A000C948A000C948A0038
:100020000C948A000C948A000C948A000C948A0028
:100030000C948A000C948A000C948A000C948A0018
:100040000C941F040C948A000C94ED030C94C703C9
:100050000C948A000C948A000C948A000C948A00F8
:100060000C948A000C948A000000000024002700F1
:100070002A0000000000250028002B0000000000DE
:1000800023002600290004040404040404040202DA
:100090000202020203030303030301020408102007
:1000A0004080010204081020010204081020000012
:1000B0000008000201000003040700000000000027
:1000C0000000690411241FBECFEFD8E0DEBFCDBF12
:1000D00011E0A0E0B1E0EAE3FBE002C005900D9280
:1000E000AC32B107D9F721E0ACE2B1E001C01D921A
:1000F000AA3EB207E1F710E0C2E6D0E004C02197C3
:10010000FE010E949505C136D107C9F70E94B304CC
:100110000C949B050C940000AF92BF92CF92DF929B
:10012000EF92FF920F931F93CF93DF936C017B01AC
:100130008B01040F151FEB015E01AE18BF08C0173D
:10014000D10759F06991D601ED91FC910190F081B0
:10015000E02DC6010995892B79F7C501DF91CF9173
:100160001F910F91FF90EF90DF90CF90BF90AF90D5
:100170000895FC01538D448D252F30E0842F90E0AD
:10018000821B930B541710F0CF9608950197089592
:10019000FC01918D828D981761F0A28DAE0FBF2F5B
:1001A000B11D5D968C91928D9F5F9F73928F90E0B1
:1001B00008958FEF9FEF0895FC01918D828D981720
:1001C00031F0828DE80FF11D858D90E008958FEF5D
:1001D0009FEF0895FC01918D228D892F90E0805C26
:1001E0009F4F821B91098F739927089585E391E0B2
:1001F0000E94EA0021E0892B09F420E0822F089573
:1002000080E090E0892B29F00E94F60081110C9487
:1002100000000895FC01A48DA80FB92FB11DA35AA9
:10022000BF4F2C91848D90E001968F739927848F16
:10023000A689B7892C93A089B1898C918370806439
:100240008C93938D848D981306C00288F389E02DDA
:1002500080818F7D80830895EF92FF920F931F938B
:10026000CF93DF93EC0181E0888F9B8D8C8D981369
:100270001AC0E889F989808185FF15C09FB7F89475
:10028000EE89FF896083E889F989808183708064C1
:1002900080839FBF81E090E0DF91CF911F910F910C
:1002A000FF90EF900895F62E0B8D10E00F5F1F4F1B
:1002B0000F731127E02E8C8D8E110CC00FB607FC2A
:1002C000FACFE889F989808185FFF5CFCE010E94B8
:1002D0000A01F1CFEB8DEC0FFD2FF11DE35AFF4F1B
:1002E000F0829FB7F8940B8FEA89FB898081806246
:1002F000CFCFCF93DF93EC01888D8823B9F0AA8903
:10030000BB89E889F9898C9185FD03C0808186FDD0
:100310000DC00FB607FCF7CF8C9185FFF2CF80811F
:1003200085FFEDCFCE010E940A01E9CFDF91CF9189
:100330000895833081F028F4813099F08230A9F05B
:1003400008958730A9F08830C9F08430B1F48091E5
:1003500080008F7D03C0809180008F778093800024
:10036000089584B58F7784BD089584B58F7DFBCFC4
:100370008091B0008F778093B00008958091B00095
:100380008F7DF9CF1F93CF93DF93282F30E0F901B2
:10039000E255FF4F8491F901E656FF4FD491F901E0
:1003A000EA57FF4FC491CC23A9F0162F81110E9468
:1003B0009901EC2FF0E0EE0FFF1FEE58FF4FA591D3
:1003C000B4918FB7F894EC91111108C0D095DE2349
:1003D000DC938FBFDF91CF911F910895DE2BF8CF73
:1003E000CF93DF9390E0FC01E656FF4F24918A57AC
:1003F0009F4FFC0184918823D1F090E0880F991FD2
:10040000FC01E859FF4FA591B491FC01EE58FF4F54
:10041000C591D491623071F49FB7F8943C91822FCA
:10042000809583238C93E8812E2B28839FBFDF91B7
:10043000CF9108958FB7F894EC912E2B2C938FBF0A
:10044000F6CF3FB7F8948091310190913201A0919D
:100450003301B091340126B5A89B05C02F3F19F098
:100460000196A11DB11D3FBFBA2FA92F982F882734
:10047000BC01CD01620F711D811D911D42E0660F0F
:10048000771F881F991F4A95D1F708958F929F92E1
:10049000AF92BF92CF92DF92EF92FF924B015C013D
:1004A0000E9421026B017C010E9421026C197D09CE
:1004B0008E099F09683E734081059105A8F321E0EC
:1004C000821A9108A108B10888EEC80E83E0D81EF0
:1004D000E11CF11C81149104A104B10429F7FF90DF
:1004E000EF90DF90CF90BF90AF909F908F90089546
:1004F000089590E080E00895CF93DF93EC0160E0F1
:100500008E810E94C20161E08E810E94C20160E082
:100510008E810E94C2018BE891E00197F1F7DF9193
:10052000CF910895CF92DF92EF92FF920F931F9396
:10053000CF93DF936C017C0187E0E80EF11CD0E0E3
:10054000C0E0062F10E0B8010C2E02C0759567952B
:100550000A94E2F76170F70181917F010E94C20164
:100560002196C430D10579F7C601DF91CF911F9153
:100570000F91FF90EF90DF90CF900C947C02CF9280
:10058000DF92EF92FF920F931F93CF93DF93EC01D3
:10059000F62E642F8C810E94C2018D818F3F19F04D
:1005A00060E00E94C2010F2D10E08F8584FF25C0FE
:1005B0006E0187E0C80ED11CF12CE12CB8010E2C85
:1005C00002C0759567950A94E2F76170F601819112
:1005D0006F010E94C201FFEFEF1AFF0A88E0E816E0
:1005E000F10461F7CE01DF91CF911F910F91FF9040
:1005F000EF90DF90CF900C947C02B80184E0759569
:1006000067958A95E1F7CE010E9492026F2DCE0187
:10061000DF91CF911F910F91FF90EF90DF90CF90DE
:100620000C94920240E0682F82ED91E00C94BF029E
:1006300081E00E9412038BE39FE10197F1F7089597
:10064000CF93DF93823029F49091E10198609093E9
:10065000E1018093E5011092E60180E48093E701D7
:1006600080E18093E80180E58093E90161E0809179
:10067000D6010E94F0018091D7018F3F19F061E00F
:100680000E94F00161E08091D8010E94F001C2ED6A
:10069000D1E09E01225D31408091E10184FD0BC0DB
:1006A00084E090E021962817390744F461E08E81B8
:1006B0000E94F001EECF88E090E0F4CF8BE39DE064
:1006C0000197F1F760E08091D6010E94C20160E0DD
:1006D0008091D8010E94C2018091D7018F3F19F00B
:1006E00060E00E94C2018091E10184FD34C063E0BA
:1006F00082ED91E00E949202CBE4D6E4CE01019714
:10070000F1F763E082ED91E00E9492022197F1F708
:1007100063E082ED91E00E94920283E592E001970E
:10072000F1F762E082ED91E00E9492028091E10196
:1007300080620E94120384E08093E2018CE00E94B8
:1007400012030E94180382E08093E30186E0DF91A8
:10075000CF910C94120380620E9412038BE496E402
:100760000197F1F78091E10180620E94120383E515
:1007700092E00197F1F78091E10180620E941203FB
:10078000D5CF41E00E94BF0281E090E008951F9222
:100790000F920FB60F9211242F933F934F935F93B5
:1007A0006F937F938F939F93AF93BF93EF93FF9339
:1007B00085E391E00E940A01FF91EF91BF91AF9113
:1007C0009F918F917F916F915F914F913F912F9169
:1007D0000F900FBE0F901F9018951F920F920FB69B
:1007E0000F9211242F938F939F93EF93FF93E09198
:1007F0004501F09146018081E0914B01F0914C015F
:1008000082FD1BC0908180914E018F5F8F7320917C
:100810004F01821741F0E0914E01F0E0EB5CFE4F9A
:10082000958F80934E01FF91EF919F918F912F9122
:100830000F900FBE0F901F9018958081F4CF1F92DC
:100840000F920FB60F9211242F933F938F939F9384
:10085000AF93BF9380912D0190912E01A0912F0114
:10086000B091300130912C0123E0230F2D3758F542
:100870000196A11DB11D20932C0180932D01909311
:100880002E01A0932F01B0933001809131019091FE
:100890003201A0913301B09134010196A11DB11D27
:1008A0008093310190933201A0933301B0933401CE
:1008B000BF91AF919F918F913F912F910F900FBE5C
:1008C0000F901F90189526E8230F0296A11DB11DC9
:1008D000D2CFE5E3F1E01382128288EE93E0A0E04C
:1008E000B0E084839583A683B78384E091E091830D
:1008F000808385EC90E09587848784EC90E09787EF
:10090000868780EC90E0918B808B81EC90E0938BDC
:10091000828B82EC90E0958B848B86EC90E0978BB9
:10092000868B118E128E138E148EE2EDF1E01382FF
:10093000128286E191E0918380838CE084838FEF43
:1009400085838BE086838AE0878389E0808788E0DF
:10095000818787E082871386148615861686178618
:1009600081E00C942003789484B5826084BD84B5C2
:10097000816084BD85B5826085BD85B5816085BD9A
:1009800080916E00816080936E0010928100809152
:1009900081008260809381008091810081608093DA
:1009A0008100809180008160809380008091B100FF
:1009B00084608093B1008091B00081608093B0002A
:1009C00080917A00846080937A0080917A008260BE
:1009D00080937A0080917A00816080937A00809180
:1009E0007A00806880937A001092C100E0914501FE
:1009F000F091460182E08083E0914101F091420153
:100A00001082E0914301F09144018FEC80831092B9
:100A10004D01E0914901F0914A0186E08083E09127
:100A20004701F0914801808180618083E091470116
:100A3000F0914801808188608083E0914701F091C6
:100A40004801808180688083E0914701F0914801EE
:100A500080818F7D808362E08EE00E94F00182E0E1
:100A60000E942003E1E08091E5018111E0E0E19541
:100A7000F0E0EE52FE4F848980680E9412034CE041
:100A800050E06EE171E082ED91E00E948C0068EC34
:100A900070E080E090E00E9446020E941803CCEBD8
:100AA000D0E008EA10E094E9E92E90E0F92E20E089
:100AB000C22E20E0D22E6EE170E080E090E00E9435
:100AC000460285E391E00E94EA001816190654F4E4
:100AD00085E391E00E94C80041E0682F82ED91E03B
:100AE0000E94BF02FE018491F801A490F701B49026
:100AF000B1100CC00E941803C114D104E1F20E948D
:100B0000F6008823C1F20E940000D5CF81110E9417
:100B10009901EB2DF0E0EE0FFF1FE458FF4FA59178
:100B2000B4918C91A82231F3E7CFEE0FFF1F05900F
:0A0B3000F491E02D0994F894FFCF32
:100B3A00000000002C018C00B9007901EA00C8000D
:100B4A00DC0000000000C1038C0079027802496EC3
:0C0B5A00696369616E646F2E2E2E00002E
:00000001FF
